:020000040800F2
:1000000000400420150A000851080008590800089B
:10001000610800086908000871080008650A0008FE
:100020000000000000000000000000007908000847
:10003000870800080000000095080008A3080008D1
:10004000650A0008650A0008650A0008650A0008D4
:10005000650A0008650A0008650A0008650A0008C4
:10006000650A0008650A0008650A0008650A0008B4
:10007000650A0008650A0008650A0008650A0008A4
:10008000650A0008650A0008650A0008650A000894
:10009000650A0008650A0008650A0008650A000884
:1000A000650A0008650A0008650A0008650A000874
:1000B000650A0008650A0008650A0008650A000864
:1000C000650A0008650A0008650A0008650A000854
:1000D00000000000650A0008650A0008650A0008BB
:1000E000650A0008650A0008650A0008650A000834
:1000F000650A0008650A0008650A0008650A000824
:10010000650A0008650A0008650A0008650A000813
:10011000650A0008650A0008650A0008650A000803
:10012000650A0008650A0008650A0008650A0008F3
:10013000650A0008650A0008650A0008650A0008E3
:10014000650A0008650A0008650A0008650A0008D3
:10015000650A0008650A0008650A0008650A0008C3
:100160000000000000000000650A0008650A0008A1
:10017000650A0008650A0008650A0008650A0008A3
:10018000650A0008650A0008650A0008000000000A
:1001900000000000650A00080000000000000000E8
:1001A0000000000000000000650A0008650A000861
:1001B000650A0008650A0008650A0008650A000863
:1001C000650A0008650A0008000000000000000041
:1001D000000000000000000000000000650A0008A8
:1001E000650A0008650A0008000000000000000021
:1001F000650A0008650A0008650A0008000000009A
:1002000000000000650A0008650A00080000000000
:1002100000000000650A000800000000650A0008F0
:10022000650A00080000000000000000650A0008E0
:10023000650A000800000000000000000000000047
:10024000000000000000000000000000650A000837
:04025000650A000833
:1002540010B5054C237833B9044B13B10448AFF3FC
:1002640000800123237010BD6C00002000000000FA
:100274006030000808B5034B1BB103490348AFF3D2
:10028400008008BD000000007000002060300008FD
:10029400034613F8012B002AFBD1181A01387047C2
:1002A40080B582B000AF264B3B60A822002138689D
:1002B40002F044FA3B6803221A613B6803225A6144
:1002C4003B68204A9A613B681F4ADA613B684FF4F5
:1002D40080621A623B6800229A623B6800225A627A
:1002E4003B680022DA623B68164A1A663B68174A82
:1002F4005A663B6810229A663B6800221A673B687C
:100304000022DA663B6800225A67BFF35F8F00233E
:100314007B600CE07B68C3F10F030D4AD15C3A6843
:100324007B6813440A461A707B6801337B607B68E0
:100334000F2BEFD9BFF35F8F00BF0837BD4680BDD9
:1003440088000020783000083001002030050020AB
:10035400A430000880B58AB000AFF860B9607A6054
:1003640000233B62FB68DB68FB61FB681B69BB61C4
:10037400BA69FB699A4205D9BA69FB69D31A013B88
:100384007B6207E0FB689A68B969FB69CB1A13447E
:10039400013B7B62FB689A68FB69D31A7A6A9342D1
:1003A40028BF13467B627A6A7B68934228BF134650
:1003B4007B62FB685A68FB6913447B617A6AB9689B
:1003C400786902F0EFF93A6A7B6A13443B62BA68CF
:1003D4007B6A1344BB607A687B6AD31A7B60FA69D0
:1003E4007B6A1344FB61FB689B68FA699A4201D1FA
:1003F4000023FB61BFF35F8FFB68FA69DA607B68F7
:10040400002BB2D13B6A18462837BD4680BD80B563
:1004140088B000AFF860B9607A60FB68DB68FB61A4
:10042400FB689A68FB69D31ABB61BA697B689A4214
:1004340011D9FB685A68FB6913443B617A68B9684F
:10044400386902F0AFF9BFF35F8FFA697B681A4429
:10045400FB68DA601FE0BB697B61FB685A68FB6973
:1004640013443B617A69B968386902F09BF97A6888
:10047400BB69D31A7B61FB685B683B61BA68BB6983
:1004840013447A691946386902F08CF9BFF35F8F17
:10049400FB687A69DA6000BF2037BD4680BD80B44E
:1004A40087B000AF78607B681B693B617B68DB6861
:1004B400FB603A69FB689A4208D87B689A68FB68D3
:1004C400D21A3B691344013B7B6104E03A69FB683F
:1004D400D31A013B7B617B6918461C37BD465DF826
:1004E400047B704780B588B000AFF860B9607A606B
:1004F400BB68BB61FB685A1C13465B001344DB00FA
:100504001F4A13447B617B695B69022B29D0022B50
:100514002ED8002B02D0012B13D029E07869FFF7E5
:10052400BEFF38613A697B689A4202D20023FB61BC
:1005340021E07B68FB617A68B9697869FFF767FF36
:1005440019E07869FFF7ABFF38617A683B69934239
:1005540028BF1346FB61FA69B9697869FFF757FF49
:1005640009E07A68B9697869FFF7F4FEF86102E096
:100574000023FB6100BFFB6918462037BD4680BDE0
:100584008800002080B588B000AFF860B9607A6058
:100594000E4BFB61FB691B78DBB2532B01D0FFF7D9
:1005A4007FFEEFF311834FF0200181F31188BB61CB
:1005B4007A68B968F868FFF795FF7861BB6983F3D7
:1005C40011887B6918462037BD4680BD880000200D
:1005D40080B584B000AF786039603868FFF758FEA2
:1005E400F860FA6839687868FFF7CCFF0346184664
:1005F4001037BD4680BD80B500AFFFF751FE00BF88
:1006040080BD80B500AFFFF7F6FF00BF80BD0FB41B
:1006140080B5C2B000AF07F58A7207F58473A3F5FD
:1006240082731A6007F58473A3F5827307F10800D7
:100634001B68D7F810214FF4807102F071F807F1AC
:10064400080319460020FFF7C3FF00BF07F58477AE
:10065400BD46BDE8804004B07047000080B582B05C
:1006640000AF786079680020FFF7B2FF03490020EB
:10067400FFF7AEFF00BF0837BD4680BD84300008D9
:1006840080B584B002AF00F0EDF9FFF7BAFF00F0D7
:1006940033F800F091F81248FFF7FAFD02464FF0E4
:1006A400FF3300930F4B0E490F4800F035FC0F4801
:1006B400FFF7D4FF00237B600AE00A4A7B681344F7
:1006C4001B7819460A48FFF7A2FF7B6801337B6059
:1006D4007B681F2BF1DD0748FFF7C0FF00BFFDE774
:1006E400000000204005002060050020883000083C
:1006F40098300008A030000880B59CB000AF07F126
:10070400200350220021184602F018F807F10803CC
:1007140000221A605A609A60DA601A615A61244BA6
:100724001B69234A23F030031361214B1B6903F037
:1007340030037B607B6800BF1D4B5B6903F00803DB
:10074400082BF9D102233B620123FB6208233B639C
:1007540040237B630023BB6407F12003184601F0A8
:1007640079F80346002B01D000F046F81F23BB6044
:100774000023FB6000233B6100237B610023BB61FA
:100784000023FB6107F108030121184601F09AFCDC
:100794000346002B01D000F02FF8064B1B68054AD6
:1007A40023F03003136000BF7037BD4680BD00BF27
:1007B400000802440020024080B500AF0C4B0D4AF3
:1007C4001A600B4B20225A60094B4FF4C0221A6165
:1007D400074B00229A60064B0022DA60044800F0BE
:1007E40063FB0346002B01D000F006F800BF80BD78
:1007F4006005002000040C4280B400AF72B600BF54
:1008040000BFFDE780B400AF00BFBD465DF8047BC8
:100814007047000080B485B000AF78600A4BD3F80D
:100824008C30094A43F40033C2F88C30064BD3F8B9
:100834008C3003F40033FB60FB6800BF1437BD4603
:100844005DF8047B704700BF000C024480B400AF25
:1008540000BFFDE780B400AF00BFFDE780B400AF88
:1008640000BFFDE780B400AF00BFFDE780B400AF78
:1008740000BFFDE780B400AF00BFBD465DF8047B58
:10088400704780B400AF00BFBD465DF8047B70477D
:1008940080B400AF00BFBD465DF8047B704780B5EF
:1008A40000AF00F07DF900BF80BD000080B586B0C8
:1008B40000AF7860144A154BD31A7B617B693B61A6
:1008C400134B1B68002B02D1114B124A1A60104BB8
:1008D4001A687B6813443A699A4207D201F036FFDA
:1008E40003460C221A604FF0FF3309E0084B1B68E3
:1008F400FB60074B1A687B681344054A1360FB6866
:1009040018461837BD4680BD00400420000400008E
:10091400A0050020F006002080B483B000AF354B62
:10092400D3F88830334A43F47003C2F88830324B2A
:1009340001221A60304B0022DA612F4B00221A6226
:100944002D4B1A682C492D4B13400B602A4B002267
:100954009A62294B0022DA62274B00221A63264B43
:10096400274A5A63244B00229A63234B244ADA63AE
:10097400214B00221A64204B214A5A641E4B002248
:100984009A641D4B1B681C4A23F4802313601A4B82
:1009940000221A65174B4FF000629A60194B9B694D
:1009A40003F060437B607B68B3F1604F03D07B68E6
:1009B400B3F1404F17D1134BDB6903F00103002B54
:1009C40005D0104B104ADA600E4B104ADA600D4B1A
:1009D400DB690C4A43F00203D3610A4BDB69094A21
:1009E40043F00103D36100BF0C37BD465DF8047BBF
:1009F400704700BF00ED00E0000C0244E3EAE2EAC5
:100A040080020101002002403B2A19087F6E5D4CE0
:100A14000D488546FFF780FF0C480D490D4A002319
:100A240002E0D458C4500433C4188C42F9D30A4A9F
:100A34000A4C002301E013600432A242FBD301F00C
:100A44008BFEFFF71DFEFEE700400420000000209F
:100A54006C0000200C3100086C000020F00600201F
:100A6400FEE7000080B500AF032000F048F901F074
:100A7400E1FC02460C4B1B6A03F00F030B49CB5CF1
:100A840022FA03F30A4A1360042000F07FF90F20CE
:100A940000F010F80346002B01D0012302E0FFF719
:100AA400B1FE0023184680BD000C0244B830000893
:100AB4001000002080B584B000AF78600023FB6094
:100AC400334B1B78002B01D101235CE0314B1B68B5
:100AD40003F00403042B0CD12F4B1A682C4B1B7806
:100AE40019464FF47A73B3FBF1F3B2FBF3F3FB60F3
:100AF40037E000F0A3F9B860BB68022B23D0BB68D1
:100B0400022B2DD8BB68002B03D0BB68012B0DD062
:100B140026E0214B1A681E4B1B7819464FF4FA53F2
:100B2400B3FBF1F3B2FBF3F3FB601AE0184B1B7851
:100B34001A464FF47A73B3FBF2F34FF4FA42B2FB62
:100B4400F3F3FB600DE0124B1B781A464FF47A73F3
:100B5400B3FBF2F34FF40042B2FBF3F3FB6000E0AB
:100B640000BFF86800F0F0F80346002B01D0012321
:100B740009E0002279684FF0FF3000F0CBF8074A13
:100B84007B681360002318461037BD4680BD00BF44
:100B94001800002010E000E01000002014000020E5
:100BA40080B400AF064B1B781A46064B1B681344EF
:100BB400044A136000BFBD465DF8047B704700BF64
:100BC40018000020A405002080B400AF034B1B686C
:100BD4001846BD465DF8047B704700BFA40500209D
:100BE40080B485B000AF78607B6803F00703FB60D6
:100BF4000C4BDB68BB60BA684FF6FF031340BB6065
:100C0400FB681A02BB68134343F0BF6343F4003329
:100C1400BB60044ABB68D36000BF1437BD465DF8AF
:100C2400047B704700ED00E080B400AF044BDB6848
:100C34001B0A03F007031846BD465DF8047B7047A2
:100C440000ED00E080B483B000AF03463960FB8060
:100C5400B7F90630002B0ADB3B68DAB20C49B7F966
:100C640006301201D2B20B4483F800230AE03B6839
:100C7400DAB20849FB8803F00F03043B1201D2B235
:100C84000B441A7600BF0C37BD465DF8047B7047F1
:100C940000E100E000ED00E080B489B000AFF8604E
:100CA400B9607A60FB6803F00703FB61FB69C3F179
:100CB4000703042B28BF0423BB61FB690433062B01
:100CC40002D9FB69033B00E000237B614FF0FF3254
:100CD400BB6902FA03F3DA43BB681A407B699A40A2
:100CE4004FF0FF317B6901FA03F3D9437B680B4072
:100CF400134318462437BD465DF8047B704780B51E
:100D040082B000AF78607868FFF76AFF00BF0837E9
:100D1400BD4680BD80B586B000AF0346B9607A6039
:100D2400FB81FFF781FF78617A68B9687869FFF71A
:100D3400B3FF0246B7F90E3011461846FFF782FF9B
:100D440000BF1837BD4680BD80B483B000AF786063
:100D54007B68013BB3F1807F01D301230DE00A4A94
:100D64007B68013B5360084B00229A60064B1B686A
:100D7400054A43F003031360002318460C37BD46AD
:100D84005DF8047B704700BF10E000E080B483B0DE
:100D940000AF78607B68042B44D801A252F823F09A
:100DA400C70D0008E50D0008070E0008290E00080D
:100DB400B90D00081F4B1B681E4A43F0040313605F
:100DC40031E01C4B1B681B4A23F0040313601A4BCD
:100DD400D3F8E430184A23F00C03C2F8E43022E0DC
:100DE400144B1B68134A23F004031360124BD3F80B
:100DF400E43023F00C03104A43F00403C2F8E43057
:100E040011E00C4B1B680B4A23F0040313600A4BDC
:100E1400D3F8E43023F00C03074A43F00803C2F884
:100E2400E43000E000BF00BF0C37BD465DF8047B32
:100E3400704700BF10E000E0000C024480B483B0AF
:100E440000AF174B1B6803F00403002B02D00423EC
:100E54007B601EE0134BD3F8E43003F00C033B60DB
:100E64003B68082B0FD03B68082B0FD83B68002B3E
:100E740003D03B68042B03D008E000237B6008E028
:100E840001237B6005E002237B6002E000237B609A
:100E940000BF7B6818460C37BD465DF8047B70477D
:100EA40010E000E0000C024480B584B000AF78602C
:100EB4007B68002B01D101232AE07B6893F838304A
:100EC400DBB2002B06D17B68002283F830207868DF
:100ED400FFF7A0FC7B685A687B681B691343FB60BF
:100EE4007B681B681B6823F4F01323F034037A68CF
:100EF4001268F9680B4313607B68012283F8282089
:100F04007B68012283F838207B6800225A6300231F
:100F140018461037BD4680BD80B584B000AFF86078
:100F2400B9607A603B60FB68002B01D10123B4E017
:100F3400FB6893F83830DBB2012B40F0AD80FB68DE
:100F440093F83030012B01D10223A6E0FB68012283
:100F540083F83020FB68022283F83820FB68BA68E3
:100F64005A61FB683A689A61FB680022DA61FB689F
:100F74007A681A62FB681B681A68FB681B6822F0AF
:100F840040021A60FB681B681A68FB681B6842F021
:100F940004021A60FB681B689B6823F01F017B68CE
:100FA40003F00303DA00FB681B680A439A60FB68DA
:100FB400022283F828207A68B968F86800F071F88A
:100FC400FB681B689A68FB681B6842F480729A602D
:100FD400BB6900220221F86800F0ECFB0346002BF9
:100FE40001D0012359E0FB681B681B6803F4F0136C
:100FF400002B3DD0FB681B681B6803F4F013B3F5AA
:10100400802F33D0FB681B681B6803F4F013B3F51F
:10101400C02F29D0FB681B681B6803F4F013B3F5D9
:10102400C01F1FD0FB681B681B6803F4F013B3F5E3
:10103400D01F15D0FB681B681B6803F4F013B3F5CD
:10104400E01F0BD0FB681B681B6803F4F013B3F5B7
:10105400F01F01D140230CE014230AE0202308E010
:101064001C2306E0302304E0202302E01C2300E0DC
:1010740014231A463968F86800F09CF8FB680122CA
:1010840083F83820FB68012283F82820FB680022BB
:1010940083F83020002300E0022318461037BD46B1
:1010A40080BD80B489B000AFF860B9607A60BB6875
:1010B4007B610023FB6110E07B691A46FB681B68B7
:1010C40012685A607B6904337B61FB68DB691A1D13
:1010D400FB68DA61FB690133FB617B689B08FA6991
:1010E4009A42E9D37B6803F00303002B5CD0FB68CE
:1010F4005B68102B15D17B6803F00303022B04D823
:101104007B691A88FB681B685A607B6803F00303D9
:10111400032B44D17B691A46FB681B6812685A602A
:101124003DE0FB685B68202B03D0FB685B68302BD9
:101134002FD17B6803F00303012B04D17B691A7858
:10114400FB681B685A607B6803F00303022B04D11D
:101154007B691A88FB681B685A607B6803F0030389
:10116400032B1CD17B691B78FB767B6901331B78CD
:10117400BB767B6902331B787B76FA7EBB7E1B02CF
:1011840042EA03017B7E1A04FB681B680A435A6027
:1011940005E07B691A46FB681B6812685A60FB68A5
:1011A400DB691A1DFB68DA6100BF2437BD465DF8B0
:1011B400047B704780B4B7B000AFF860B9601346E1
:1011C400FB71BB68C7F8D430FB79302B44DC142B9B
:1011D400C0F2E782143B1C2B00F2E38201A252F816
:1011E40023F000BF65120008A7170008A71700081E
:1011F400A7170008A7170008A7170008A7170008D3
:10120400A7170008FD120008A7170008A717000871
:10121400A7170008D1130008A7170008A71700088C
:10122400A7170008A7170008A7170008A7170008A2
:10123400A7170008A7170008A7170008A717000892
:10124400A7170008A7170008A7170008A717000882
:10125400A7170008C3140008402B00F0D181A0E2B6
:10126400FB681B68DA68D7F8D430C7F8C020D7F811
:10127400C02012BA1A60D7F8D4300433C7F8D43077
:10128400FB681B681A69D7F8D430C7F8C420D7F8AC
:10129400C42012BA1A60D7F8D4300433C7F8D43053
:1012A400FB681B685A69D7F8D430C7F8C820D7F848
:1012B400C82012BA1A60D7F8D4300433C7F8D4302F
:1012C400FB681B689A69D7F8D430C7F8CC20D7F8E4
:1012D400CC2012BA1A60D7F8D4300433C7F8D4300B
:1012E400FB681B68DA69D7F8D430C7F8D020D7F880
:1012F400D02012BA1A6055E2FB681B68DA68D7F886
:10130400D430C7F8A420D7F8A42012BA1A60D7F8AA
:10131400D4300433C7F8D430FB681B681A69D7F893
:10132400D430C7F8A820D7F8A82012BA1A60D7F882
:10133400D4300433C7F8D430FB681B685A69D7F833
:10134400D430C7F8AC20D7F8AC2012BA1A60D7F85A
:10135400D4300433C7F8D430FB681B689A69D7F8D3
:10136400D430C7F8B020D7F8B02012BA1A60D7F832
:10137400D4300433C7F8D430FB681B68DA69D7F873
:10138400D430C7F8B420D7F8B42012BA1A60D7F80A
:10139400D4300433C7F8D430984B5A69D7F8D430D2
:1013A400C7F8B820D7F8B82012BA1A60D7F8D430E2
:1013B4000433C7F8D430914B9A69D7F8D430C7F8BE
:1013C400BC20D7F8BC2012BA1A60EBE1FB681B689A
:1013D400DA68D7F8D430C7F88420D7F8842012BA52
:1013E4001A60D7F8D4300433C7F8D430FB681B68CC
:1013F4001A69D7F8D430C7F88820D7F8882012BAE9
:101404001A60D7F8D4300433C7F8D430FB681B68AB
:101414005A69D7F8D430C7F88C20D7F88C2012BA80
:101424001A60D7F8D4300433C7F8D430FB681B688B
:101434009A69D7F8D430C7F89020D7F8902012BA18
:101444001A60D7F8D4300433C7F8D430FB681B686B
:10145400DA69D7F8D430C7F89420D7F8942012BAB0
:101464001A60D7F8D4300433C7F8D430634B5A69C0
:10147400D7F8D430C7F89820D7F8982012BA1A6051
:10148400D7F8D4300433C7F8D4305C4B9A69D7F812
:10149400D430C7F89C20D7F89C2012BA1A60D7F829
:1014A400D4300433C7F8D430544BDA69D7F8D43085
:1014B400C7F8A020D7F8A02012BA1A6072E1FB681E
:1014C4001B68DA68D7F8D4307A657A6D12BA1A6074
:1014D400D7F8D4300433C7F8D430FB681B681A69D2
:1014E400D7F8D430BA65BA6D12BA1A60D7F8D430C6
:1014F4000433C7F8D430FB681B685A69D7F8D43072
:10150400FA65FA6D12BA1A60D7F8D4300433C7F802
:10151400D430FB681B689A69D7F8D4303A663A6EBF
:1015240012BA1A60D7F8D4300433C7F8D430FB6841
:101534001B68DA69D7F8D4307A667A6E12BA1A6000
:10154400D7F8D4300433C7F8D4302C4B5A69D7F8C1
:10155400D430BA66BA6E12BA1A60D7F8D4300433EB
:10156400C7F8D430254B9A69D7F8D430FA66FA6EA6
:1015740012BA1A60D7F8D4300433C7F8D4301F4BEA
:10158400DA69D7F8D4303A673A6F12BA1A60D7F8E2
:10159400D4300433C7F8D430184B1A6AD7F8D4308F
:1015A4007A677A6F12BA1A60D7F8D4300433C7F85E
:1015B400D430124B5A6AD7F8D430BA67BA6F12BA19
:1015C4001A60D7F8D4300433C7F8D4300B4B9A6A76
:1015D400D7F8D430FA67FA6F12BA1A60D7F8D43051
:1015E4000433C7F8D430054BDA6AD7F8D430C7F8D7
:1015F4008020D7F8802012BA1A60D3E010070C427A
:10160400FB681B68DA68D7F8D4307A617A6912BA51
:101614001A60D7F8D4300433C7F8D430FB681B6899
:101624001A69D7F8D430BA61BA6912BA1A60D7F80D
:10163400D4300433C7F8D430FB681B685A69D7F830
:10164400D430FA61FA6912BA1A60D7F8D430043384
:10165400C7F8D430FB681B689A69D7F8D4303A626B
:101664003A6A12BA1A60D7F8D4300433C7F8D430BF
:10167400FB681B68DA69D7F8D4307A627A6A12BADE
:101684001A60D7F8D4300433C7F8D430484B5A69B9
:10169400D7F8D430BA62BA6A12BA1A60D7F8D4301A
:1016A4000433C7F8D430424B9A69D7F8D430FA627D
:1016B400FA6A12BA1A60D7F8D4300433C7F8D430AF
:1016C4003B4BDA69D7F8D4303A633A6B12BA1A60F2
:1016D400D7F8D4300433C7F8D430354B1A6AD7F866
:1016E400D4307A637A6B12BA1A60D7F8D4300433E0
:1016F400C7F8D4302E4B5A6AD7F8D430BA63BA6BD1
:1017040012BA1A60D7F8D4300433C7F8D430284B4F
:101714009A6AD7F8D430FA63FA6B12BA1A60D7F817
:10172400D4300433C7F8D430214BDA6AD7F8D43034
:101734003A643A6C12BA1A60D7F8D4300433C7F852
:10174400D4301B4B1A6BD7F8D4307A647A6C12BA43
:101754001A60D7F8D4300433C7F8D430144B5A6B1A
:10176400D7F8D430BA64BA6C12BA1A60D7F8D43045
:101774000433C7F8D4300E4B9A6BD7F8D430FA64DC
:10178400FA6C12BA1A60D7F8D4300433C7F8D430DC
:10179400074BDA6BD7F8D4303A653A6D12BA1A604F
:1017A40000E000BF00BFDC37BD465DF8047B704736
:1017B40010070C4280B586B000AFF860B9603B609A
:1017C4001346FB71FFF700FA78611EE03B68B3F142
:1017D400FF3F1AD0FFF7F8F902467B69D31A3A683B
:1017E4009A4202D33B68002B0FD1FB68012283F895
:1017F4003820FB685B6B43F00402FB685A63FB68A8
:10180400002283F8302001231FE0BB68082B0CD989
:10181400FB681B681A68BB681340BA689A420CBF1D
:1018240001230023DBB21A460BE0FB681B685A6AEB
:10183400BB681340BA689A420CBF01230023DBB291
:101844001A46FB799A42C1D0002318461837BD4680
:1018540080BD000080B588B000AF78607B68002B45
:1018640002D1012300F028BC944BDB6903F0180378
:10187400FB61924B9B6A03F00303BB617B681B68AB
:1018840003F01003002B5BD0FB69082B05D0FB6928
:10189400182B14D1BB69022B11D17B68DB69002B97
:1018A40002D1012300F008BC844B9B6923F47C1211
:1018B4007B681B6A1B04814913438B6140E07B688E
:1018C400DB69002B23D07D4B1B687C4A43F4807377
:1018D4001360FFF779F9786108E0FFF775F90246BC
:1018E4007B69D31A022B01D90323E5E3734B1B68ED
:1018F40003F40073002BF0D0704B9B6923F47C122B
:101904007B681B6A1B046D4913438B6118E06B4BA6
:101914001B686A4A23F480731360FFF755F97861F2
:1019240008E0FFF751F902467B69D31A022B01D96B
:101934000323C1E3614B1B6803F40073002BF0D154
:101944007B681B6803F00103002B00F0A080FB6997
:10195400102B05D0FB69182B09D1BB69032B06D1C9
:101964007B685B68002B40F092800123A4E37B68D2
:101974005B68B3F5803F06D1504B1B684F4A43F474
:101984008033136058E07B685B68002B12D14B4BAB
:101994001B684A4A23F480331360484B1B68474A48
:1019A40023F480131360454B1B68444A23F48023BB
:1019B400136041E07B685B68B3F5A02F12D13F4B05
:1019C4001B683E4A43F4802313603C4B1B683B4A2C
:1019D40023F480131360394B1B68384A43F4803373
:1019E400136029E07B685B68B3F5A81F12D1334B01
:1019F4001B68324A43F480231360304B1B682F4A20
:101A040043F4801313602D4B1B682C4A43F480333A
:101A1400136011E0294B1B68284A23F480331360B8
:101A2400264B1B68254A23F480231360234B1B6831
:101A3400224A23F4801313607B685B68002B13D065
:101A4400FFF7C2F8786108E0FFF7BEF802467B6949
:101A5400D31A642B01D903232EE3184B1B6803F418
:101A64000033002BF0D012E0FFF7AEF8786108E005
:101A7400FFF7AAF802467B69D31A642B01D9032322
:101A84001AE30E4B1B6803F40033002BF0D17B6880
:101A94001B6803F00203002B00F09A80FB69002B03
:101AA40005D0FB69182B49D1BB69012B46D17B6852
:101AB400DB68002B04D10123FEE200BF000C0244CA
:101AC400FB69002B1CD19A4B1B6803F018027B683E
:101AD4001B699A4214D0964B1B6823F018027B684A
:101AE4001B69934913430B6000F0D0FD914B1B68B5
:101AF4001846FEF7DFFF0346002B01D00123DBE28B
:101B0400FFF762F8786108E0FFF75EF802467B6948
:101B1400D31A022B01D90323CEE2854B1B6803F0B1
:101B24000203002BF0D0824B1B6923F4FE027B6876
:101B34005B691B047E4913430B6149E07B68DB68E6
:101B4400002B2CD07A4B1B6823F018027B681B698E
:101B5400774913430B60764B1B68754A43F00103C6
:101B64001360FFF731F8786108E0FFF72DF80246BB
:101B74007B69D31A022B01D903239DE26C4B1B68AA
:101B840003F00203002BF0D0694B1B6923F4FE021F
:101B94007B685B691B04664913430B6118E0644B63
:101BA4001B68634A23F001031360FFF70DF87861A3
:101BB40008E0FFF709F802467B69D31A022B01D922
:101BC400032379E25A4B1B6803F00203002BF0D184
:101BD4007B681B6803F00803002B3CD07B689B697F
:101BE400002B1CD0524BD3F8F030514A43F08063A1
:101BF400C2F8F030FEF7E8FF786108E0FEF7E4FF92
:101C040002467B69D31A022B01D9032354E2484BC1
:101C1400D3F8F03003F00063002BEFD01BE0444B0B
:101C2400D3F8F030424A23F08063C2F8F030FEF774
:101C3400CBFF786108E0FEF7C7FF02467B69D31A41
:101C4400022B01D9032337E2394BD3F8F03003F0E8
:101C54000063002BEFD17B681B6803F00403002BA7
:101C640000F0D280344B5B6A03F00103002B18D1DF
:101C7400314B5B6A304A43F001035362FEF7A4FF21
:101C8400786108E0FEF7A0FF02467B69D31A022BB5
:101C940001D9032310E2284B5B6A03F00103002BF4
:101CA400F0D07B689B68012B08D1214BD3F8F0302E
:101CB4001F4A43F00103C2F8F03074E07B689B686C
:101CC400002B18D11A4BD3F8F030194A23F0010332
:101CD400C2F8F030164BD3F8F030154A23F08003E5
:101CE400C2F8F030124BD3F8F030114A23F0040359
:101CF400C2F8F03057E07B689B68052B1ED10C4B73
:101D0400D3F8F0300A4A43F00403C2F8F030084B29
:101D1400D3F8F030064A23F08003C2F8F030044BC5
:101D2400D3F8F030024A43F00103C2F8F0303AE04D
:101D3400000C024414000020000802447B689B68E5
:101D4400852B18D1A24BD3F8F030A14A43F00403F9
:101D5400C2F8F0309E4BD3F8F0309D4A43F0800334
:101D6400C2F8F0309A4BD3F8F030994A43F00103AB
:101D7400C2F8F03017E0964BD3F8F030944A23F0D1
:101D84000103C2F8F030924BD3F8F030904A23F0BC
:101D94000403C2F8F0308E4BD3F8F0308C4A23F0B1
:101DA4008003C2F8F0307B689B68002B16D0FEF7E6
:101DB4000BFF78610AE0FEF707FF02467B69D31A3E
:101DC40041F28832934201D9032375E1804BD3F861
:101DD400F03003F00203002BEDD015E0FEF7F4FE23
:101DE40078610AE0FEF7F0FE02467B69D31A41F2FD
:101DF4008832934201D903235EE1754BD3F8F03066
:101E040003F00203002BEDD17B681B6803F0200371
:101E1400002B36D07B685B6A002B19D06C4B1B6897
:101E24006B4A43F480531360FEF7CEFE786108E0FA
:101E3400FEF7CAFE02467B69D31A022B01D903239B
:101E44003AE1634B1B6803F40053002BF0D018E015
:101E54005F4B1B685E4A23F480531360FEF7B4FEA5
:101E6400786108E0FEF7B0FE02467B69D31A022BC4
:101E740001D9032320E1564B1B6803F40053002BC4
:101E8400F0D17B689B6A002B00F01581FB69182B4D
:101E940000F0AF807B689B6A022B40F086804C4B3D
:101EA4001B684B4A23F080731360FEF78DFE786144
:101EB40008E0FEF789FE02467B69D31A022B01D99A
:101EC4000323F9E0424B1B6803F00073002BF0D1AD
:101ED4003F4B9B6A23F47C5323F003037A68D16A53
:101EE4007A68126B12020A43394913438B627B6886
:101EF4005B6B013BC3F308027B689B6B013B5B029A
:101F04009BB21A437B68DB6B013B1B0403F4FE03A7
:101F14001A437B681B6C013B1B0603F0FE432C49F0
:101F240013434B632A4B9B6A294A23F010039362A1
:101F34007B68DB6C264ADB009363254B9B6A244A4F
:101F440043F010039362224B9B6A23F00C027B68DC
:101F54005B6C1F4913438B621D4B9B6A23F0200269
:101F64007B689B6C1A4913438B62194B9B6A184A12
:101F740043F480339362164B1B68154A43F0807315
:101F84001360FEF721FE786108E0FEF71DFE0246AD
:101F94007B69D31A022B01D903238DE00C4B1B68F8
:101FA40003F00073002BF0D085E0094B1B68084A4E
:101FB40023F080731360FEF707FE78610AE0FEF7F2
:101FC40003FE02467B69D31A022B03D9032373E071
:101FD400000C02443A4B1B6803F00073002BEED153
:101FE400374B9B6A364A23F4E02323F003039362BE
:101FF40061E0334B9B6A3B61314B5B6BFB607B68FD
:102004009B6A012B31D03B6903F003027B68DB6AD6
:102014009A422AD13B691B0A03F03F027B681B6B7F
:102024009A4222D1FB68C3F308027B685B6B013BD5
:102034009A421AD1FB685B0A03F07F027B689B6BB0
:10204400013B9A4211D1FB681B0C03F07F027B68B1
:10205400DB6B013B9A4208D1FB681B0E03F07F0245
:102064007B681B6C013B9A4201D0012324E0144B92
:102074009B6BDB08C3F30C027B68DB6C9A421AD0BF
:102084000F4B9B6A0E4A23F010039362FEF79CFDEC
:10209400786100BFFEF798FD02467B699342F9D050
:1020A4007B68DB6C064ADB009363054B9B6A044A3E
:1020B40043F010039362002318462037BD4680BDC9
:1020C400000C024480B584B000AF786039607B684E
:1020D400002B01D101239EE1834B1B6803F00F0306
:1020E4003A689A4210D9804B1B6823F00F027E494C
:1020F4003B6813430B607C4B1B6803F00F033A6887
:102104009A4201D0012386E17B681B6803F0100327
:10211400002B12D07B685A69744B1B6A1B0A03F0AC
:1021240070039A4209D9714B1B6A23F4E0427B681D
:102134005B691B026D4913430B627B681B6803F0E8
:102144000803002B12D07B681A69684B1B6A1B09B1
:1021540003F070039A4209D9644B1B6A23F4E062CA
:102164007B681B691B01614913430B627B681B6815
:1021740003F00403002B10D07B68DA685B4B1B6A06
:1021840003F070039A4208D9584B1B6A23F070027B
:102194007B68DB68554913430B627B681B6803F05B
:1021A4000203002B10D07B689A68504B1B6A03F023
:1021B4000F039A4208D94D4B1B6A23F00F027B6828
:1021C4009B684A4913430B627B681B6803F0010355
:1021D400002B00F093807B685B68032B07D1434B93
:1021E4001B6803F00073002B21D1012313E17B68EA
:1021F4005B68022B07D13D4B1B6803F40033002BB3
:1022040015D1012307E17B685B68012B07D1374BAC
:102214001B6803F40073002B09D10123FBE0334B4B
:102224001B6803F00203002B01D10123F3E02F4BC1
:10223400DB6923F003027B685B682C491343CB61A1
:10224400FEF7C2FCF8607B685B68032B12D10AE0DE
:10225400FEF7BAFC0246FB68D31A41F28832934275
:1022640001D90323D7E0214BDB6903F01803182BB2
:10227400EED143E07B685B68022B12D10AE0FEF7E3
:10228400A3FC0246FB68D31A41F28832934201D977
:102294000323C0E0154BDB6903F01803102BEED1C8
:1022A4002CE07B685B68012B22D10AE0FEF78CFCF2
:1022B4000246FB68D31A41F28832934201D90323C0
:1022C400A9E00A4BDB6903F01803082BEED115E0F3
:1022D400FEF77AFC0246FB68D31A41F28832934235
:1022E40006D9032397E000BF00200240000C0244FB
:1022F4004B4BDB6903F01803002BE9D17B681B68A7
:1023040003F00203002B10D07B689A68444B1B6ACD
:1023140003F00F039A4208D2414B1B6A23F00F02C9
:102324007B689B683E4913430B623E4B1B6803F07A
:102334000F033A689A4210D23A4B1B6823F00F02FB
:1023440038493B6813430B60364B1B6803F00F039B
:102354003A689A4201D001235DE07B681B6803F070
:102364000403002B10D07B68DA682D4B1B6A03F042
:1023740070039A4208D22A4B1B6A23F070027B68CE
:10238400DB68274913430B627B681B6803F008036F
:10239400002B12D07B681A69214B1B6A1B0903F0BE
:1023A40070039A4209D21E4B1B6A23F4E0627B68D5
:1023B4001B691B011A4913430B627B681B6803F0FA
:1023C4001003002B12D07B685A69154B1B6A1B0A39
:1023D40003F070039A4209D2114B1B6A23F4E042C2
:1023E4007B685B691B020E4913430B6200F022F801
:1023F40002460B4B1B6A03F00F030B49CB5C22FA1A
:1024040003F30A4A13600A4B1B681846FEF752FB93
:102414000346FB72FB7A18461037BD4680BD00BFE9
:10242400000C024400200240B830000810000020D4
:102434001400002080B489B000AF8C4BDB6903F03A
:102444001803082B02D18A4BFB6107E1874BDB6938
:1024540003F01803002B12D1844B1B6803F02003F4
:10246400002B09D0814B1B68DB0803F00303814A6E
:1024740022FA03F3FB61F1E07E4BFB61EEE07B4B60
:10248400DB6903F01803102B02D17B4BFB61E5E001
:10249400764BDB6903F01803182B40F0DD80734B97
:1024A4009B6A03F003037B61704B9B6A1B0A03F076
:1024B4003F033B616D4B9B6A1B0903F00103FB6007
:1024C4006A4B9B6BDB08C3F30C03FA6802FB03F350
:1024D40007EE903AF8EE677AC7ED027A3B69002B73
:1024E40000F0B7807B69012B03D07B69032B56D0A6
:1024F40077E05E4B1B6803F02003002B2DD05B4B71
:102504001B68DB0803F003035A4A22FA03F37B60D7
:102514007B6807EE903AF8EE676A3B6907EE903AFB
:10252400F8EE677A86EEA77A504B5B6BC3F3080329
:1025340007EE903AF8EE676A97ED026ADFED4F5ABC
:10254400C6EE257A76EEA77AF7EE006A77EEA67ADB
:1025540067EE277AC7ED067A65E03B6907EE903AA5
:10256400F8EE677ADFED466A86EEA77A3F4B5B6B3F
:10257400C3F3080307EE903AF8EE676A97ED026A30
:10258400DFED3E5AC6EE257A76EEA77AF7EE006ABC
:1025940077EEA67A67EE277AC7ED067A43E03B69C1
:1025A40007EE903AF8EE677ADFED366A86EEA77AA0
:1025B4002E4B5B6BC3F3080307EE903AF8EE676AA1
:1025C40097ED026ADFED2D5AC6EE257A76EEA77AEC
:1025D400F7EE006A77EEA67A67EE277AC7ED067AF9
:1025E40021E03B6907EE903AF8EE677ADFED266A60
:1025F40086EEA77A1D4B5B6BC3F3080307EE903A94
:10260400F8EE676A97ED026ADFED1C5AC6EE257A8A
:1026140076EEA77AF7EE006A77EEA67A67EE277A67
:10262400C7ED067A00BF114B5B6B5B0A03F07F03B7
:1026340001333B603B6807EE903AB8EE677AD7ED1A
:10264400066AC6EE877AFCEEE77A17EE903AFB61EB
:1026540004E00023FB6101E0064BFB61FB691846C3
:102664002437BD465DF8047B704700BF000C02446C
:1026740000093D000090D00340787D010000004631
:102684000024744C20BCBE4B0024744A80B500AFB7
:10269400FFF7D0FE0246084B1B6A03F00F030749FD
:1026A400CB5C03F01F0322FA03F3054A1360044BC7
:1026B4001B68184680BD00BF000C0244B8300008F7
:1026C4001000002030B514469BB005461A46002C75
:1026D40005DA8B2303604FF0FF301BB030BD4FF49D
:1026E4000273009104916946ADF80C304FF0000379
:1026F400199314BF04F1FF332346029305934FF655
:10270400FF73ADF80E301E9B00F0AEF9431CBCBF46
:102714008B232B60002CE0D0009B00221A70DCE796
:1027240007B5009313460A46014603480068FFF7BD
:10273400C9FF03B05DF804FB1C00002002440346FB
:10274400934200D1704703F8011BF9E7014B186865
:10275400704700BF1C00002070B50D4D00260D4CC5
:10276400641BA410A64209D10B4D00260B4C00F0AB
:1027740075FC641BA410A64205D170BD55F8043B3A
:1027840001369847EEE755F8043B01369847F2E7DF
:10279400043100080431000804310008083100083D
:1027A400704770470A44431E914200D1704710B5E8
:1027B40011F8014B914203F8014FF9D110BD00000B
:1027C40038B50546002941D051F8043C0C1F002BB4
:1027D400B8BFE41800F0E0F81D4A136833B9636029
:1027E40014602846BDE8384000F0DCB8A34208D99C
:1027F400206821188B4201BF19685B6809182160A1
:10280400EDE71A465B680BB1A342FAD91168501878
:10281400A0420BD120680144501811608342E0D1DA
:1028240018685B68084453601060DAE702D90C2327
:102834002B60D6E7206821188B4202BF19685B68B9
:102844000918636008BF21605460CAE738BD00BF3F
:10285400EC06002070B50F4E0C460546316811B9E0
:1028640000F0A8FB30602146284600F0A3FB431C7F
:1028740003D14FF0FF34204670BDC41C24F0030480
:10288400A042F8D0211A284600F094FB0130F2D17E
:10289400EFE700BFE80600202DE9F843CD1C06460B
:1028A40025F0030508350C2D38BF0C25002D01DB60
:1028B400A94204D90C2333600020BDE8F883DFF873
:1028C400D48000F069F8D8F800301C4644BB29468F
:1028D4003046FFF7BFFF431C044658D1D8F80040E8
:1028E4002746002F43D1002C4BD02368394630466D
:1028F40004EB030900F05EFB814542D121683046B8
:102904006D1A2946FFF7A6FF01303AD023682B44FD
:102914002360D8F800305A6862BBC8F800700FE032
:102924002268521B20D40B2A17D96119A3422560AF
:1029340018BF5960636808BFC8F8001062514B6043
:10294400304600F02FF804F10B00231D20F007009F
:10295400C21A1CBF1B1AA350AFE76268A3420CBF84
:10296400C8F800205A60EBE723466468AEE73C46AB
:102974007F68B6E71A465B68A342FBD10023536025
:10298400DEE70C233046336000F00CF894E7056072
:10299400D6E700BFEC0600200148FFF701BF00BFE7
:1029A400E40600200148FFF7FCBE00BFE406002057
:1029B4002DE9F0471F468E6882460C46BE4290467B
:1029C4000B682DD8B1F90C2012F4906F26D06569EC
:1029D400096905EB4505A3EB01097B1C05EBD575DE
:1029E4004B446D109D4238BF1D46530527D52946DB
:1029F400FFF752FF064660B34A462169FFF7D2FE4D
:102A0400A38923F4906343F08003A38126614E4499
:102A14006561A5EB090526603E46A560BE4200D966
:102A24003E4632464146206800F0AAFAA3680020D8
:102A34009B1BA360236833442360BDE8F0872A46C8
:102A440000F0D6FA06460028E0D121695046FFF787
:102A5400B7FE0C234FF0FF30CAF80030A38943F0CF
:102A64004003A381E9E700002DE9F04F98468B89E4
:102A74009DB007461B060D46144610D50B6973B965
:102A84004021FFF709FF2860286130B90C233B601F
:102A94004FF0FF301DB0BDE8F08F40236B61002381
:102AA400CDF80C804FF00109DFF8A08109932023B1
:102AB4008DF8293030238DF82A3023469A4613F8AE
:102AC400012B0AB1252AF9D1BAEB040B0BD05B46D2
:102AD400224629463846FFF76BFF013000F0A780F5
:102AE400099A5A4409929AF80030002B00F09F800A
:102AF40000234FF0FF320AF1010A049307938DF883
:102B040053301A93CDE90523544605224F4814F84F
:102B1400011B00F05FFA049AD8B9D00644BF202301
:102B24008DF85330110744BF2B238DF853309AF896
:102B340000302A2B15D0079A544600204FF00A0C77
:102B4400214611F8013B303B092B4BD9B0B1079218
:102B540014E0A0EB0803A24609FA03F31343049319
:102B6400D2E7039B191D1B68002B0391BBBF5B427B
:102B740042F0020207930793B8BF049223782E2BE6
:102B84000AD163782A2B32D1039B02341A1D1B68A5
:102B940043EAE37303920593DFF8C0A0032221788C
:102BA400504600F017FA38B1A0EB0A004022049B0B
:102BB400013482401343049314F8011B0622244871
:102BC4008DF8281000F006FA002836D0214B1BBBE4
:102BD400039B073323F0070308330393099B334410
:102BE40009936AE70CFB02320C460120A8E7002394
:102BF40001344FF00A0C19460593204610F8012BB6
:102C0400303A092A03D9002BC6D00591C4E70CFB3E
:102C1400012104460123F0E703AB2A4604A9384600
:102C240000930D4BAFF30080421C0646D6D1AB890E
:102C34005B063FF52DAF09982CE703AB2A4604A9A0
:102C440038460093044B00F07DF8EDE7C8300008E7
:102C5400D230000800000000B5290008CE3000087A
:102C64002DE9F047164698468A6807460B690C46D4
:102C7400DDF820909342B8BF1346336091F84320A7
:102C84000AB1013333602368990642BF33680233C3
:102C94003360256815F0060506D104F1190AE368C6
:102CA40032689B1AAB422BDC94F843302268003B19
:102CB40018BF0123920630D404F14302414638463A
:102CC400C847013023D023681A3454F80A2C03F07F
:102CD4000603042B0ABF54F80E5C002533684FF03A
:102CE400000608BFED1A54F8123C08BF25EAE57542
:102CF4009342C4BF9B1AED18B5421AD1002008E0D4
:102D04000123524641463846C847013003D14FF0AB
:102D1400FF30BDE8F0870135C1E7E1185A1C3020C7
:102D24000233224481F8430094F8451082F843109A
:102D3400C2E70123224641463846C8470130E6D05F
:102D44000136D9E72DE9FF470F7E914680460C46B0
:102D5400782F9A460C9E01F1430207D8622F0AD8B5
:102D6400002F00F0D180582F00F0B88004F1420603
:102D740084F842703AE0A7F16303152BF6D801A159
:102D840051F823F0E12D0008F52D0008712D0008FD
:102D9400712D0008712D0008712D0008F52D000813
:102DA400712D0008712D0008712D0008712D000887
:102DB400F32E00081F2E0008AD2E0008712D000808
:102DC400712D0008152F0008712D00081F2E000812
:102DD400712D0008712D0008B52E000833681A1DE6
:102DE4001B68326004F1420684F8423001239CE0FF
:102DF40033682068191D3160060601D51D6803E09B
:102E04004506FBD5B3F90050002D03DA2D236D429E
:102E140084F8433058480A2311E0216833680806CF
:102E240053F8045B02D4490648BFADB26F2F336038
:102E3400514814BF0A230823002184F8431066680C
:102E4400002EA66005DB21682E4321F004012160D9
:102E54004BD01646B5FBF3F103FB1157C75D06F8DB
:102E6400017D2F460D46BB42F4D9082B0BD12368B4
:102E7400DF0708D5236961689942DEBF302306F86D
:102E8400013C06F1FF36921B22614B4603AA214600
:102E94004046CDF800A0FFF7E3FE01304AD14FF0E1
:102EA400FF3004B0BDE8F087236843F020032360BB
:102EB40078273248236884F845701F06316851F832
:102EC400045B02D45F0648BFADB23160D90744BF8A
:102ED40043F0200323601DB11023ADE72648E9E742
:102EE400236823F020032360F6E71646BDE7336822
:102EF4002568181D616930602E061B6801D51960AC
:102F040002E06806FBD51980002316462361BCE75E
:102F1400336800211A1D32601E686268304600F072
:102F240059F808B1801B606063682361002384F84A
:102F34004330AAE72369324649464046D047013028
:102F4400ADD023689B0713D4E068039B9842B8BFB5
:102F54001846A6E70123324649464046D047013089
:102F64009DD00135E36803995B1AAB42F2DCEBE7D1
:102F7400002504F11906F5E7D9300008EA30000805
:102F8400884210B501EB020402D98442234607D8D3
:102F9400431EA14208D011F8012B03F8012FF8E7D2
:102FA400024401468A4200D110BD13F8014D02F8D3
:102FB400014DF7E738B50023054D044608462B605C
:102FC400FDF774FC431C02D12B6803B1236038BDA8
:102FD400E0060020C9B20346024410B593421846E5
:102FE40001D1002003E0047801338C42F6D110BDF6
:102FF4002DE9F041074614460D4621B91146BDE8B6
:10300400F041FFF749BC2AB92546FFF7D9FB28460A
:10301400BDE8F08100F01AF88442064602D8B4EB09
:10302400500FF4D821463846FFF736FC804608B9DD
:103034004546ECE7B4422246294628BF3246FFF70C
:10304400B1FB29463846FFF7BBFBF1E751F8043CD6
:10305400181F002BBCBF0B58C0187047F8B500BF31
:10306400F8BC08BC9E467047F8B500BFF8BC08BC65
:043074009E467047BD
:103078005465726D696E616C000000000D0A0000F5
:1030880073746172742070726F6772616D000000F2
:10309800252E32582000000000000000000000002B
:1030A8000000545452205245474745530000000041
:1030B80000000000000000000102030406070809E0
:1030C800232D302B2000686C4C0065666745464709
:1030D800003031323334353637383941424344458C
:1030E80046003031323334353637383961626364FB
:0430F8006566000009
:0830FC0098D1FF7F01000000E4
:043104007902000844
:043108005502000864
:10310C0048656C6C6F2053544D3332483532330064
:10311C000090D003100000000100000020000020EF
:10312C0000000000A80500201006002078060020F2
:10313C000000000000000000000000000000000083
:10314C000000000000000000000000000000000073
:10315C000000000000000000000000000000000063
:0C316C0000000000000000000000000057
:0400000508000A15D0
:00000001FF
